:100000000C9468000C9490000C9490000C94900058
:100010000C9490000C9490000C9490000C94900020
:100020000C9490000C9490000C9490000C94900010
:100030000C9490000C94A0050C9490000C949000EB
:100040000C9437040C9490000C9490000C94900045
:100050000C9490000C9490000C9490000C949000E0
:100060000C9481040C9490000000000024002700F0
:100070002A0000000000250028002B0000000000DE
:1000800023002600290004040404040404040202DA
:100090000202020203030303030301020408102007
:1000A0004080010204081020010204081020000012
:1000B0000008000201000003040700000000000027
:1000C00000001F1C1F1E1F1E1F1F1E1F1E1FC705F7
:1000D00011241FBECFEFD8E0DEBFCDBF11E0A0E0FE
:1000E000B1E0E0E8FBE102C005900D92A034B10759
:1000F000D9F722E0A0E4B1E001C01D92AD31B20712
:10010000E1F710E0C8E6D0E004C02197FE010E94AC
:10011000E00AC736D107C9F70E9403060C94BE0D4A
:100120000C940000DC0115961C92159714961C92F5
:10013000149713961C9213971C9281E011968C933E
:10014000119711968C911197282F2150330BF9019B
:10015000EE53FF4FE491823009F4EF5FE11102C0EA
:100160008F5FECCF81E012968C930895982F809149
:1001700005028111FCCF81E0809305028093040287
:100180002FEF2093030210920202290F2093010205
:100190008093000280910002806D80930002809124
:1001A000FF018130F9F41092FF01809100028093E9
:1001B000BB008091BC0083FDF8CF85EC8093BC0030
:1001C000809105028130E1F380910202891710F4D9
:1001D00090910202AFEDB1E0EFEBF1E080E0891326
:1001E00003C0089585EEEACF2D9121938F5FF7CF5D
:1001F000982F2091BE0181E0213208F043C0809108
:1002000005028111FCCF8091BD0132E030930502DF
:10021000909304029FEF90930302109202022093A6
:100220000102ADE9B1E0EFEDF1E090E0291331C05A
:100230001092000290910002880F892B8093000297
:100240008091FF01813049F51092FF0180910002F9
:100250008093BB008091BC0083FDF8CF85EC809338
:10026000BC00809105028230E1F3809103028F3F50
:10027000B1F0809103028032A1F0809103028033BB
:1002800091F084E010929C011092BE0110929B01AB
:1002900008953D9131939F5FC9CF85EEE0CF80E017
:1002A000F1CF82E0EFCF83E0EDCF08950895833062
:1002B00081F028F4813099F08230A9F008958730D8
:1002C000A9F08830C9F08430B1F4809180008F7D2E
:1002D00003C0809180008F7780938000089584B55B
:1002E0008F7784BD089584B58F7DFBCF8091B0005A
:1002F0008F778093B00008958091B0008F7DF9CF03
:10030000CF93DF93282F30E0F901E255FF4F84911E
:10031000F901E656FF4FD491F901EA57FF4FC49116
:10032000CC23A1F081110E945701EC2FF0E0EE0FD9
:10033000FF1FE458FF4FA591B491EC91ED2381E0AC
:1003400090E009F480E0DF91CF91089580E090E0A3
:10035000FACF1F93CF93DF93282F30E0F901E255B6
:10036000FF4F8491F901E656FF4FD491F901EA5706
:10037000FF4FC491CC23A9F0162F81110E94570181
:10038000EC2FF0E0EE0FFF1FEE58FF4FA591B49158
:100390008FB7F894EC91111108C0D095DE23DC934F
:1003A0008FBFDF91CF911F910895DE2BF8CFCF93B0
:1003B000DF9390E0FC01E656FF4F24918A579F4F50
:1003C000FC0184918823D1F090E0880F991FFC01F3
:1003D000E859FF4FA591B491FC01EE58FF4FC5912C
:1003E000D491623071F49FB7F8943C91822F80953C
:1003F00083238C93E8812E2B28839FBFDF91CF919D
:1004000008958FB7F894EC912E2B2C938FBFF6CFD5
:100410003FB7F89480918B0190918C01A0918D0150
:10042000B0918E0126B5A89B05C02F3F19F001960B
:10043000A11DB11D3FBFBA2FA92F982F8827BC013E
:10044000CD01620F711D811D911D42E0660F771F66
:10045000881F991F4A95D1F708958F929F92AF9266
:10046000BF92CF92DF92EF92FF924B015C010E940C
:1004700008026B017C010E9408026C197D098E093B
:100480009F09683E734081059105A8F321E0821A17
:100490009108A108B10888EEC80E83E0D81EE11CBF
:1004A000F11C81149104A104B10429F7FF90EF908D
:1004B000DF90CF90BF90AF909F908F900895FC01F8
:1004C0009F012F5F3F4F80818F7E803269F080E0F7
:1004D0002AE0919130ED390F3A3040F4829F900D2F
:1004E000112480ED890FF5CFF901EACF089585ED4C
:1004F0008093BC008091BC0084FDFCCF109205026B
:10050000089520916301260F3327331F21323105CF
:10051000ECF420910502FC0190E080E0243069F0C9
:1005200082E00895A09163012191AC014D5B5E4F83
:10053000A40FB52FB11D2C930196861798F38091C7
:100540006301680F6093630180E0089581E008957E
:100550000895E091950180919401E81730F4F0E05E
:10056000E154FE4F808190E008958FEF9FEF089552
:1005700090919501809194012FEF3FEF981748F4E7
:10058000E92FF0E0E154FE4F208130E09F5F90932F
:100590009501C90108958091940190919501891B5D
:1005A000990B0895CF92DF92EF92FF920F931F93D2
:1005B000CF93DF937C01CB018A0120919B01222301
:1005C00089F0EB016B01C40ED51ECC15DD0569F079
:1005D0006991D701ED91FC910190F081E02DC70167
:1005E0000995F3CF642F0E948102C801DF91CF915A
:1005F0001F910F91FF90EF90DF90CF900895CF93D0
:10060000DF931F92CDB7DEB7698320919B01222330
:10061000F9F02091BE01203258F021E030E0FC01D9
:100620003383228390E080E00F90DF91CF91089593
:1006300080919C01E82FF0E0E356FE4F9981908372
:100640008F5F80939C018093BE0181E090E0ECCFAE
:1006500061E0CE0101960E948102F7CF90E080E038
:10066000089508951F93CF93DF93182FC8E0D0E02B
:1006700061E017FF60E082E00E94A901110F60E0D5
:1006800084E00E94A90161E084E00E94A901219711
:1006900079F760E083E00E94A90161E083E0DF91E7
:1006A000CF911F910C94A901809193018F5F8530A8
:1006B00089F18093930180919301823009F457C0AE
:1006C00058F58130E9F18091400190914101019606
:1006D00090934101809340018091400190914101AC
:1006E000843F9140A4F0109241011092400180910A
:1006F000420191E089278093420186E00E948001B7
:10070000892B29F480919A018F5F80939A018CEC58
:1007100086BD089581E0CDCF833009F43FC0843099
:1007200091F660E080E10E94A901E0919901F0E07A
:10073000ED5FFE4F80810E94320361E081E112C0D3
:1007400060E081E10E94A901E0919601F0E0ED5F97
:10075000FE4F808190910201913039F40E94320362
:1007600061E08EE00E94A901AECF8D7FF7CF60E0FF
:100770008EE00E94A901E0919701F0E0ED5FFE4F4D
:10078000808190910201913021F490914201911168
:100790008D7F0E94320361E08FE0E4CF60E08FE064
:1007A0000E94A901E0919801F0E0ED5FFE4F808189
:1007B0000E94320361E080E1D5CF9C018A3091052F
:1007C0009CF46AE070E00E94CC0A60939801209348
:1007D0009901809198018F7080939801809199017F
:1007E0008F708093990108950A97C29790F7C90175
:1007F0006AE070E00E94CC0A6093980180939901AE
:10080000E8CF9C018A3091059CF46AE070E00E9478
:10081000CC0A6093960120939701809196018F7086
:1008200080939601809197018F708093970108952E
:100830000A970E9790F7C9016AE070E00E94CC0A0F
:100840006093960180939701E8CFCF93DF93D62FE3
:10085000C42F682F8AE00E94A9016D2F8BE00E94AF
:10086000A9016C2F8CE0DF91CF910C94A9011F920C
:100870000F920FB60F9211242F933F938F939F9354
:10088000AF93BF938091870190918801A0918901D6
:10089000B0918A013091860123E0230F2D3758F55E
:1008A0000196A11DB11D209386018093870190932D
:1008B0008801A0938901B0938A0180918B01909166
:1008C0008C01A0918D01B0918E010196A11DB11DE9
:1008D00080938B0190938C01A0938D01B0938E0136
:1008E000BF91AF919F918F913F912F910F900FBE2C
:1008F0000F901F90189526E8230F0296A11DB11D99
:10090000D2CF1F920F920FB60F9211242F933F93C5
:100910004F935F936F937F938F939F93AF93BF9307
:10092000EF93FF938091B900887F803609F44AC025
:10093000F0F5883209F4A7C018F5803109F49BC09E
:10094000B8F4882309F4F9C0883009F494C0FF9101
:10095000EF91BF91AF919F918F917F916F915F9137
:100960004F913F912F910F900FBE0F901F901895B0
:10097000883109F488C0803251F78093030214C093
:10098000803409F49DC040F48033B9F38833F9F61C
:100990008093030285ECB0C0803509F485C08835AA
:1009A00009F496C0883499F60E947702D0CF88392E
:1009B00009F48CC038F5883729F050F4883611F0E6
:1009C000803729F683E0809305021092850157C095
:1009D000883809F47BC0803919F0803809F0B7CF26
:1009E00080918501803208F071C0E091850181E03D
:1009F0008E0F809385018091BB00F0E0EB59FE4F94
:100A000080833DC0803B39F0E0F4803A09F479C03E
:100A1000883A09F09CCF84E080930502109264012B
:100A200010926301E0919101F091920109958091FA
:100A3000630181110FC081E0809363011092430133
:100A400009C0803C09F4A6CF883C09F4A3CF883BB9
:100A500009F07DCFE091640181E08E0F8093640105
:100A6000F0E0ED5BFE4F80818093BB0090916401CC
:100A70008091630129C0809100028093BB0085ECC6
:100A80008093BC0064CF909102028091010298177C
:100A900058F5E091020281E08E0F80930202F0E0AF
:100AA000E152FE4F8081E9CFE091020281E08E0F9A
:100AB000809302028091BB00F0E0E152FE4F808300
:100AC00090910202809101029817C8F285E8D8CF70
:100AD000E091020281E08E0F809302028091BB00C0
:100AE000F0E0E152FE4F80838091040281115CCFDF
:100AF00081E08093FF0184EA8093BC00109205029C
:100B000026CF85EC8093BC00109205028091850170
:100B1000803230F4E0918501F0E0EB59FE4F108215
:100B20006091850170E0E0918F01F091900185E680
:100B300091E00995109285010ACF1092030234CFFB
:100B40001F920F920FB60F9211242F933F934F9342
:100B50005F936F937F938F939F93AF93BF93EF9325
:100B6000FF93E0910001F09101010995FF91EF9150
:100B7000BF91AF919F918F917F916F915F914F91B5
:100B80003F912F910F900FBE0F901F901895EEE0A0
:100B9000F2E01382128288EE93E0A0E0B0E084835A
:100BA0009583A683B78381E191E091838083AAE155
:100BB000B2E01196FC93EE9312961C9281E090E0C5
:100BC0000E94960A90E090930D0280930C0282E0BE
:100BD00090E00E94960A90E090930B0280930A02A4
:100BE00083E090E00E94960A90E09093090280933F
:100BF000080284E090E00E94960A90E09093070239
:100C0000809306020895CF93DF93CDB7DEB72E977A
:100C10000FB6F894DEBF0FBECDBF789484B5826066
:100C200084BD84B5816084BD85B5826085BD85B590
:100C3000816085BD80916E00816080936E0010920E
:100C40008100809181008260809381008091810089
:100C5000816080938100809180008160809380001A
:100C60008091B10084608093B1008091B000816078
:100C70008093B00080917A00846080937A008091A4
:100C80007A00826080937A0080917A0081608093FC
:100C90007A0080917A00806880937A001092C10077
:100CA000109295011092940110929C011092BE0135
:100CB0001092050211E0109304021092FF0161E00E
:100CC00082E10E94A90161E083E10E94A901809173
:100CD000B9008E7F8093B9008091B9008D7F809399
:100CE000B90088E48093B80085E48093BC0085E572
:100CF00091E0909392018093910186E591E0909329
:100D0000900180938F0161E082E00E94D70161E051
:100D100084E00E94D70161E083E00E94D70161E096
:100D20008EE00E94D70161E08FE00E94D70161E070
:100D300080E10E94D70161E081E10E94D70161E07A
:100D400089E00E94D70161E08AE00E94D70161E05A
:100D50008BE00E94D70161E08CE00E94D70141E066
:100D600050E061E070E081E090E00E94250462E0E4
:100D700086E00E94D70162E087E00E94D70162E02E
:100D800088E00E94D7011092930180E18093810056
:100D90001092800080E89EE3909387008093860005
:100DA00081E18093810084E593E090930101809339
:100DB000000110936F00CE0101966C01442443940E
:100DC000B4E02B2E1AE0512E08E6302E80E0682E7B
:100DD00080E0782E90910201913009F025C1A09118
:100DE0001A02B0911B0290939B013092BD011092A8
:100DF0009C011092BE01ED91FC9111970190F08140
:100E0000E02D60E0CD01099581E00E94F80080931B
:100E10001C02882309F45DC0C6010E9492000C8167
:100E2000ED8010E0F12C87E00E94800180900C02A0
:100E300090900D02A0900802B0900902892B09F051
:100E4000E1C0C4010E94010480910A0290910B024A
:100E50000E94DD0361E070E080E090E00E942D02DE
:100E6000081519055CF080910A0290910B02E816B2
:100E7000F90624F061E089E00E94A9010A151B052A
:100E80005CF08091060290910702E816F90624F0C2
:100E900060E089E00E94A90180919A018B3058F0AE
:100EA00082E08093020141E050E061E070E090E078
:100EB00080E00E94250486E00E948001019711F4E1
:100EC00010929A016114710409F484CF0E94000009
:100ED00075CF87E00E94B60010929501809394012F
:100EE000873081F020921C02C6010E94920086E0A9
:100EF000F601DE01199601900D928A95E1F70C85B5
:100F0000ED848FCF80911A0290911B02DC01ED914C
:100F1000FC910284F385E02D099580911A0290914D
:100F20001B02DC01ED91FC910284F385E02D099513
:100F30009C01A4E035952795AA95E1F72F703327FA
:100F4000922F990F990FE22EE91AEE0CE80E80917C
:100F50001A0290911B02DC01ED91FC910284F38551
:100F6000E02D099586FF3FC0982F9F71292F30E013
:100F7000F4E035952795FA95E1F7322F330F330FCB
:100F8000022F031B000F090F85FD045F80911A02D9
:100F900090911B02DC01ED91FC910284F385E02D20
:100FA000099580911A0290911B02DC01ED91FC9150
:100FB0000284F385E02D099580911A0290911B021D
:100FC000DC01ED91FC910284F385E02D099580917F
:100FD0001A0290911B02DC01ED91FC910284F385D1
:100FE000E02D09951ECF8C01E4E015950795EA9553
:100FF000E1F70F701127902F990F990F091B000F20
:10100000080FC4CF88E00E948001892B41F4C501FC
:101010000E940104809106029091070219CFC80135
:101020000E940104C70114CF923009F0BFC186E0CD
:101030000E948001892B09F06BC180919A018A304E
:1010400008F066C1B3E0B0930201809199011F924C
:101050008F93809198011F928F93809197011F9297
:101060008F93809196011F928F93EFE1F1E0FF93B0
:10107000EF93DF92CF920E94E60A8DE391E00E9407
:101080005F02182F88E391E00E945F02F82EC601EC
:101090000E945F02E82ECE0104960E945F02B82EE5
:1010A000CE0107960E945F02A82E80911A029091AD
:1010B0001B0240929B013092BD0110929C01109244
:1010C000BE01DC01ED91FC910190F081E02D6FE01B
:1010D000099581E00E94F800082F80931C020FB64A
:1010E000F894DEBF0FBECDBF81115EC181E00E94CA
:1010F000B6001092950180939401813009F447C1A4
:1011000020921C0280911A0290911B0240929B0136
:101110003092BD0110929C011092BE01DC01ED9154
:10112000FC910190F081E02D6FE0099580911A0209
:1011300090911B02602F6F77DC01ED91FC91019083
:10114000F081E02D099581E00E94F80080931C0257
:1011500080911A0290911B0240929B013092BD0136
:1011600010929C011092BE01DC01ED91FC91019066
:10117000F081E02D60E00995A0911A02B0911B0268
:101180008A2D652D0E94AC0A682F660F680F660FC6
:101190006A0DED91FC9111970190F081E02DCD0148
:1011A0000995A0911A02B0911B028B2D652D0E940A
:1011B000AC0A682F660F680F660F6B0DED91FC91FE
:1011C00011970190F081E02DCD010995A0911A02AF
:1011D000B0911B028E2D652D0E94AC0A682F660F00
:1011E000680F660F6E0DED91FC9111970190F081E3
:1011F000E02DCD0109950CE9010F70E8E72E1436BA
:1012000010F4012FE12C412F50E02F2D30E0E2ECC3
:10121000F0E08491280F311D319689EC90E08E1713
:101220009F07B9F7137011F42F5F3F4FCA01039660
:101230009695879596958795ADE6B1E04A9FB00162
:101240004B9F700D5A9F700D11246B5F7F4F860F5F
:10125000971F820F931F67E070E00E94B80A682F03
:10126000811101C067E080911A0290911B02DC019C
:10127000ED91FC910190F081E02D0995A0911A0269
:10128000B0911B028F2D652D0E94AC0A682F660F4E
:10129000680F660F6F0DED91FC9111970190F08131
:1012A000E02DCD01099580911A0290911B026E2DBF
:1012B0006860DC01ED91FC910190F081E02D0995D1
:1012C000A0911A02B0911B02802F652D0E94AC0ADA
:1012D000682F660F680F660F600FED91FC911197F4
:1012E0000190F081E02DCD01099581E00E94F80088
:1012F00080931C0268EE73E080E090E00E942D0273
:1013000041E050E070E060E081E090E00E94250460
:1013100088E00E9480010097B9F4409196012091E5
:10132000970130E0459D200D311D11242F5F3F4F67
:10133000283131050CF4C9010E94010464EF71E009
:1013400080E090E00E942D0287E00E9480010097DB
:10135000B9F4409198012091990130E0459D200D0C
:10136000311D11242F5F3F4F2C3331050CF4C9017F
:101370000E94DD0364EF71E080E090E00E942D02A6
:1013800061E070E080E090E00E942D0294CD8091B9
:101390001A0290911B02DC01ED91FC910284F3850D
:1013A000E02D0995082FAECE00E0ACCE933009F0C9
:1013B0005DC010910C02812F90910D020E940104DA
:1013C00080910A0290910B020E94DD0386E00E9448
:1013D0008001892BD9F4612F81E090E00E949E0A60
:1013E00060910A0282E090E00E949E0A209202012F
:1013F00068EE73E080E090E00E942D0250E040E053
:1014000061E070E081E090E00E94250488E00E94A5
:1014100080010097B1F420910C0230910D022F5FF2
:101420003F4F283131050CF4C90190930D02809390
:101430000C020E94010464EF71E080E090E00E94E1
:101440002D0287E00E948001009709F099CF20913A
:101450000A0230910B022F5F3F4F2C3331050CF401
:10146000C90190930B0280930A0282CF943009F055
:1014700022CD10910802812F909109020E9401044F
:1014800080910602909107020E94DD0386E00E948F
:101490008001892BD9F4612F83E090E00E949E0A9D
:1014A0006091060284E090E00E949E0A4092020150
:1014B00068EE73E080E090E00E942D0241E050E091
:1014C00061E070E081E090E00E94250488E00E94E5
:1014D00080010097B1F420910802309109022F5F3A
:1014E0003F4F283131050CF4C901909309028093D4
:1014F00008020E94010464EF71E080E090E00E9425
:101500002D0287E00E948001009709F039CF2091D9
:101510000602309107022F5F3F4F2C3331050CF448
:10152000C901909307028093060222CFF999FECF5A
:1015300092BD81BDF89A992780B50895262FF99913
:10154000FECF1FBA92BD81BD20BD0FB6F894FA9AA6
:10155000F99A0FBE01960895991B79E004C0991F6E
:10156000961708F0961B881F7A95C9F780950895FD
:10157000AA1BBB1B51E107C0AA1FBB1FA617B707B9
:1015800010F0A61BB70B881F991F5A95A9F78095D5
:101590009095BC01CD01089597FB072E16F4009499
:1015A00007D077FD09D00E94B80A07FC05D03EF4A9
:1015B000909581959F4F0895709561957F4F0895FF
:1015C000EE0FFF1F0590F491E02D0994AEE0B0E01E
:1015D000ECEEFAE00C94950D0D891E8986E08C8363
:1015E0001A8309838FEF9FE79E838D83AE01475E49
:1015F0005F4F6F89788DCE0101960E94090B2F8174
:101600003885020F131FF80110822E96E4E00C9427
:10161000B10DABE0B0E0EFE0FBE00C94870D7C0196
:101620003B018A01FC0117821682838181FFC8C1B8
:10163000CE0101965C01F7019381F30193FD859141
:1016400093FF81913F01882309F453C1853239F416
:1016500093FD859193FF81913F01853229F4B70174
:1016600090E00E94F90CE7CF912C212C312CFFE166
:10167000F31538F08B3211F190F4803209F1833296
:1016800029F137FC3CC020ED280F2A3050F536FEFA
:1016900020C08AE0989E200D1124922E06C08D3223
:1016A00091F0803371F7689430F8F30193FD8591E0
:1016B00093FF81913F018111DACF21C0689431F805
:1016C000689432F8F2CF689433F8EFCF689434F826
:1016D000ECCFEAE02E9E200D1124222E689435F8DE
:1016E000E4CF8E3229F436FC04C1689436F8DDCF9D
:1016F0008C3619F4689437F8D8CF8836B1F2982F21
:101700009F7D95549330E0F08336A1F18337C1F18A
:10171000833509F063C02801F2E04F0E511CF80137
:10172000C080D180692D70E036FC02C06FEF7FEF82
:10173000C6010E94E30C4C01689437F882010AC08C
:101740000C5F1F4FFFE3F98388248394912C65017C
:10175000E89437F833FE2DC0522C8114910471F5B2
:10176000552009F468CFB70180E290E00E94F90C9F
:101770005A94F6CFF801808189830E5F1F4FE4CF22
:101780002801F2E04F0E511CF801C080D180692D74
:1017900070E036FC02C06FEF7FEFC6010E94EE0CD6
:1017A0004C018201D5CFB70180E290E00E94F90C94
:1017B0002A942814190409F0B0F7CECFF60137FCAB
:1017C000859137FE81916F01B70190E00E94F90C7D
:1017D00051105A94F1E08F1A9108BFCF843619F056
:1017E000893609F077C0F80137FE6BC060817181DE
:1017F000828193810C5F1F4FF32DFF763F2E97FF61
:1018000009C090958095709561957F4F8F4F9F4F40
:10181000689437F82AE030E0A5010E94290DC82E0F
:10182000CA188C2C432C36FE0CC0E89440F8C9141E
:1018300040F434FE05C032FC03C0F32DFE7E4F2E73
:10184000892C44FE95C0FE01EC0DF11D8081803392
:1018500009F087C0242D297E422E842D8870582EB1
:1018600043FC95C040FE8FC09C2C821418F42C0CB5
:10187000922C981844FE91C0B70180E390E00E943A
:10188000F90C42FE09C088E790E041FE02C088E5FD
:1018900090E0B7010E94F90CC91408F48AC0CA94F8
:1018A000D12C9FEFC91AD90ACA0CDB1CF601829110
:1018B0006F01B70190E00E94F90CAC14BD04B1F7C0
:1018C0004FCF60817181072E000C880B990B0E5F42
:1018D0001F4F92CFD32CE894D4F82AE030E085371C
:1018E00039F1232D297FD22E8F3601F148F4883526
:1018F000A9F0F701868197812B96E2E10C94A30D64
:10190000803749F08837A9F7D4FE02C06894D2F82E
:1019100020E130E00DC06894D4F8F6CF34FE03C067
:10192000822F8660D82E20E132E002C028E030E02D
:10193000F801D7FE0FC060817181828193810C5FB5
:101940001F4FA5010E94290DC82ECA183D2CE894EE
:1019500037F867CF6081718190E080E00E5F1F4FA4
:10196000F0CF42FC02C0839478CF8394839475CFE8
:10197000842D867809F471CFF6CFB70180E290E02C
:101980000E94F90C83948214C0F3512C73CF522C13
:101990005818821408F46ECFF8CF842D867809F495
:1019A0007BCF8BE241FE80E247FC8DE2B70190E005
:1019B00071CFB70180E390E00E94F90C9A946CCF4C
:1019C0008FEF9FEF99CFFC0105906150704001109F
:1019D000D8F7809590958E0F9F1F0895FC01615058
:1019E000704001900110D8F7809590958E0F9F1F41
:1019F00008950F931F93CF93DF93182F092FEB01B7
:101A00008B8181FD09C01FEF0FEF812F902FDF9198
:101A1000CF911F910F91089582FF14C02E813F81B5
:101A20008C819D81281739073CF4E881F981CF0129
:101A300001969983888310838E819F8101969F836D
:101A40008E83E3CFE885F985812F0995892BA1F352
:101A5000DACFFA01AA27283051F1203181F1E89438
:101A60006F936E7F6E5F7F4F8F4F9F4FAF4FB1E091
:101A70003ED0B4E03CD0670F781F891F9A1FA11D8C
:101A8000680F791F8A1F911DA11D6A0F711D811D8D
:101A9000911DA11D20D009F468943F912AE0269F52
:101AA00011243019305D3193DEF6CF010895462FB1
:101AB0004770405D4193B3E00FD0C9F7F6CF462F92
:101AC0004F70405D4A3318F0495D31FD40524193FB
:101AD00002D0A9F7EACFB4E0A695979587957795B8
:101AE0006795BA95C9F700976105710508959B013F
:101AF000AC010A2E06945795479537952795BA95C8
:101B0000C9F7620F731F841F951FA01D08952F92A0
:101B10003F924F925F926F927F928F929F92AF927D
:101B2000BF92CF92DF92EF92FF920F931F93CF93CA
:101B3000DF93CDB7DEB7CA1BDB0B0FB6F894DEBF61
:101B40000FBECDBF09942A88398848885F846E8487
:101B50007D848C849B84AA84B984C884DF80EE80D1
:101B6000FD800C811B81AA81B981CE0FD11D0FB6DA
:101B7000F894DEBF0FBECDBFED010895F894FFCFFE
:101B800031030122F346C2938A0AE3028200000075
:101B900000FF02D2022E03A802CB02B802A902253E
:101BA000303175253031753A253031752530317534
:101BB0003A30300041756720313820323032300001
:107E0000112484B714BE81FFF0D085E080938100F7
:107E100082E08093C00088E18093C10086E0809377
:107E2000C20080E18093C4008EE0C9D0259A86E02C
:107E300020E33CEF91E0309385002093840096BBD3
:107E4000B09BFECF1D9AA8958150A9F7CC24DD24C4
:107E500088248394B5E0AB2EA1E19A2EF3E0BF2EE7
:107E6000A2D0813461F49FD0082FAFD0023811F036
:107E7000013811F484E001C083E08DD089C08234E0
:107E800011F484E103C0853419F485E0A6D080C0E4
:107E9000853579F488D0E82EFF2485D0082F10E0AE
:107EA000102F00270E291F29000F111F8ED06801E7
:107EB0006FC0863521F484E090D080E0DECF843638
:107EC00009F040C070D06FD0082F6DD080E0C81688
:107ED00080E7D80618F4F601B7BEE895C0E0D1E017
:107EE00062D089930C17E1F7F0E0CF16F0E7DF06D8
:107EF00018F0F601B7BEE89568D007B600FCFDCFD4
:107F0000A601A0E0B1E02C9130E011968C91119780
:107F100090E0982F8827822B932B1296FA010C0160
:107F200087BEE89511244E5F5F4FF1E0A038BF0790
:107F300051F7F601A7BEE89507B600FCFDCF97BE46
:107F4000E89526C08437B1F42ED02DD0F82E2BD052
:107F50003CD0F601EF2C8F010F5F1F4F84911BD097
:107F6000EA94F801C1F70894C11CD11CFA94CF0C13
:107F7000D11C0EC0853739F428D08EE10CD085E9AC
:107F80000AD08FE07ACF813511F488E018D01DD067
:107F900080E101D065CF982F8091C00085FFFCCF94
:107FA0009093C60008958091C00087FFFCCF809118
:107FB000C00084FD01C0A8958091C6000895E0E648
:107FC000F0E098E1908380830895EDDF803219F02E
:107FD00088E0F5DFFFCF84E1DECF1F93182FE3DFCA
:107FE0001150E9F7F2DF1F91089580E0E8DFEE27F6
:047FF000FF270994CA
:027FFE00040479
:0400000300007E007B
:00000001FF
